{
  "address": "0x5FbDB2315678afecb367f032d93F642f64180aa3",
  "abi": [
    {
      "inputs": [],
      "stateMutability": "nonpayable",
      "type": "constructor"
    },
    {
      "inputs": [],
      "name": "Todo_InvalidID",
      "type": "error"
    },
    {
      "anonymous": false,
      "inputs": [
        {
          "indexed": true,
          "internalType": "address",
          "name": "",
          "type": "address"
        },
        {
          "indexed": true,
          "internalType": "uint256",
          "name": "",
          "type": "uint256"
        }
      ],
      "name": "TaskAdded",
      "type": "event"
    },
    {
      "anonymous": false,
      "inputs": [
        {
          "indexed": true,
          "internalType": "address",
          "name": "",
          "type": "address"
        },
        {
          "indexed": true,
          "internalType": "uint256",
          "name": "",
          "type": "uint256"
        }
      ],
      "name": "TaskCompleted",
      "type": "event"
    },
    {
      "anonymous": false,
      "inputs": [
        {
          "indexed": true,
          "internalType": "address",
          "name": "",
          "type": "address"
        },
        {
          "indexed": true,
          "internalType": "uint256",
          "name": "",
          "type": "uint256"
        }
      ],
      "name": "TaskRemoved",
      "type": "event"
    },
    {
      "inputs": [
        {
          "internalType": "string",
          "name": "_description",
          "type": "string"
        }
      ],
      "name": "addTask",
      "outputs": [
        {
          "internalType": "bool",
          "name": "",
          "type": "bool"
        }
      ],
      "stateMutability": "nonpayable",
      "type": "function"
    },
    {
      "inputs": [],
      "name": "getTasks",
      "outputs": [
        {
          "components": [
            {
              "internalType": "uint256",
              "name": "id",
              "type": "uint256"
            },
            {
              "internalType": "string",
              "name": "description",
              "type": "string"
            },
            {
              "internalType": "uint256",
              "name": "createdAt",
              "type": "uint256"
            },
            {
              "internalType": "bool",
              "name": "status",
              "type": "bool"
            }
          ],
          "internalType": "struct Todo.Task[]",
          "name": "",
          "type": "tuple[]"
        }
      ],
      "stateMutability": "view",
      "type": "function"
    },
    {
      "inputs": [
        {
          "internalType": "uint256",
          "name": "_id",
          "type": "uint256"
        }
      ],
      "name": "markCompleted",
      "outputs": [
        {
          "internalType": "bool",
          "name": "",
          "type": "bool"
        }
      ],
      "stateMutability": "nonpayable",
      "type": "function"
    },
    {
      "inputs": [
        {
          "internalType": "uint256",
          "name": "_id",
          "type": "uint256"
        }
      ],
      "name": "removeTask",
      "outputs": [
        {
          "internalType": "bool",
          "name": "",
          "type": "bool"
        }
      ],
      "stateMutability": "nonpayable",
      "type": "function"
    }
  ],
  "transactionHash": "0xbb6b2cbee54d9c47e182966c464789bb990dd8acefe549f86c87eefc1798a42d",
  "args": [],
  "numDeployments": 1,
  "solcInputHash": "cd356da469bbcfbc3587a875d04de849",
  "bytecode": "0x608060405234801561001057600080fd5b506111a6806100206000396000f3fe608060405234801561001057600080fd5b506004361061004c5760003560e01c806304a87e3814610051578063672385621461006f578063c30841171461009f578063cac5c512146100cf575b600080fd5b6100596100ff565b6040516100669190610b43565b60405180910390f35b61008960048036038101906100849190610bd4565b610262565b6040516100969190610c30565b60405180910390f35b6100b960048036038101906100b49190610c77565b61028f565b6040516100c69190610c30565b60405180910390f35b6100e960048036038101906100e49190610c77565b610330565b6040516100f69190610c30565b60405180910390f35b606060008061010c61048c565b73ffffffffffffffffffffffffffffffffffffffff1673ffffffffffffffffffffffffffffffffffffffff168152602001908152602001600020805480602002602001604051908101604052809291908181526020016000905b828210156102595783829060005260206000209060040201604051806080016040529081600082015481526020016001820180546101a390610cd3565b80601f01602080910402602001604051908101604052809291908181526020018280546101cf90610cd3565b801561021c5780601f106101f15761010080835404028352916020019161021c565b820191906000526020600020905b8154815290600101906020018083116101ff57829003601f168201915b50505050508152602001600282015481526020016003820160009054906101000a900460ff16151515158152505081526020019060010190610166565b50505050905090565b6000610276838361027161048c565b610494565b156102845760019050610289565b600090505b92915050565b600061029961048c565b826000808373ffffffffffffffffffffffffffffffffffffffff1673ffffffffffffffffffffffffffffffffffffffff168152602001908152602001600020805490508110610314576040517fc275cb6d00000000000000000000000000000000000000000000000000000000815260040160405180910390fd5b61032561031f61048c565b8561064c565b600192505050919050565b600061033a61048c565b826000808373ffffffffffffffffffffffffffffffffffffffff1673ffffffffffffffffffffffffffffffffffffffff1681526020019081526020016000208054905081106103b5576040517fc275cb6d00000000000000000000000000000000000000000000000000000000815260040160405180910390fd5b60016000806103c261048c565b73ffffffffffffffffffffffffffffffffffffffff1673ffffffffffffffffffffffffffffffffffffffff168152602001908152602001600020858154811061040e5761040d610d04565b5b906000526020600020906004020160030160006101000a81548160ff0219169083151502179055508361043f61048c565b73ffffffffffffffffffffffffffffffffffffffff167ff684d89bb0f42287bf32838774e4b7f8a60c11804b3c6d1791fa55f30679264360405160405180910390a3600192505050919050565b600033905090565b6000806000808473ffffffffffffffffffffffffffffffffffffffff1673ffffffffffffffffffffffffffffffffffffffff1681526020019081526020016000208054905090506000604051806080016040528083815260200187878080601f016020809104026020016040519081016040528093929190818152602001838380828437600081840152601f19601f8201169050808301925050505050505081526020014281526020016000151581525090506000808573ffffffffffffffffffffffffffffffffffffffff1673ffffffffffffffffffffffffffffffffffffffff1681526020019081526020016000208190806001815401808255809150506001900390600052602060002090600402016000909190919091506000820151816000015560208201518160010190816105ce9190610f0e565b506040820151816002015560608201518160030160006101000a81548160ff0219169083151502179055505050818473ffffffffffffffffffffffffffffffffffffffff167ff2ba834cb120f28cac9129d80d6990b8d99d9a0a71487cec7d88bd8a2ba45cb960405160405180910390a36001925050509392505050565b600060016000808573ffffffffffffffffffffffffffffffffffffffff1673ffffffffffffffffffffffffffffffffffffffff1681526020019081526020016000208054905061069c919061100f565b90506000808473ffffffffffffffffffffffffffffffffffffffff1673ffffffffffffffffffffffffffffffffffffffff16815260200190815260200160002081815481106106ee576106ed610d04565b5b90600052602060002090600402016000808573ffffffffffffffffffffffffffffffffffffffff1673ffffffffffffffffffffffffffffffffffffffff168152602001908152602001600020838154811061074c5761074b610d04565b5b906000526020600020906004020160008201548160000155600182018160010190816107789190611059565b50600282015481600201556003820160009054906101000a900460ff168160030160006101000a81548160ff0219169083151502179055509050506000808473ffffffffffffffffffffffffffffffffffffffff1673ffffffffffffffffffffffffffffffffffffffff16815260200190815260200160002080548061080157610800611141565b5b600190038181906000526020600020906004020160008082016000905560018201600061082e91906108fd565b60028201600090556003820160006101000a81549060ff021916905550509055816000808573ffffffffffffffffffffffffffffffffffffffff1673ffffffffffffffffffffffffffffffffffffffff168152602001908152602001600020838154811061089f5761089e610d04565b5b906000526020600020906004020160000181905550818373ffffffffffffffffffffffffffffffffffffffff167fe235d79665ea3192912390028d35b5256dfd077d767ca2c5a42e370435adfa0260405160405180910390a3505050565b50805461090990610cd3565b6000825580601f1061091b575061093a565b601f016020900490600052602060002090810190610939919061093d565b5b50565b5b8082111561095657600081600090555060010161093e565b5090565b600081519050919050565b600082825260208201905092915050565b6000819050602082019050919050565b6000819050919050565b61099981610986565b82525050565b600081519050919050565b600082825260208201905092915050565b60005b838110156109d95780820151818401526020810190506109be565b60008484015250505050565b6000601f19601f8301169050919050565b6000610a018261099f565b610a0b81856109aa565b9350610a1b8185602086016109bb565b610a24816109e5565b840191505092915050565b60008115159050919050565b610a4481610a2f565b82525050565b6000608083016000830151610a626000860182610990565b5060208301518482036020860152610a7a82826109f6565b9150506040830151610a8f6040860182610990565b506060830151610aa26060860182610a3b565b508091505092915050565b6000610ab98383610a4a565b905092915050565b6000602082019050919050565b6000610ad98261095a565b610ae38185610965565b935083602082028501610af585610976565b8060005b85811015610b315784840389528151610b128582610aad565b9450610b1d83610ac1565b925060208a01995050600181019050610af9565b50829750879550505050505092915050565b60006020820190508181036000830152610b5d8184610ace565b905092915050565b600080fd5b600080fd5b600080fd5b600080fd5b600080fd5b60008083601f840112610b9457610b93610b6f565b5b8235905067ffffffffffffffff811115610bb157610bb0610b74565b5b602083019150836001820283011115610bcd57610bcc610b79565b5b9250929050565b60008060208385031215610beb57610bea610b65565b5b600083013567ffffffffffffffff811115610c0957610c08610b6a565b5b610c1585828601610b7e565b92509250509250929050565b610c2a81610a2f565b82525050565b6000602082019050610c456000830184610c21565b92915050565b610c5481610986565b8114610c5f57600080fd5b50565b600081359050610c7181610c4b565b92915050565b600060208284031215610c8d57610c8c610b65565b5b6000610c9b84828501610c62565b91505092915050565b7f4e487b7100000000000000000000000000000000000000000000000000000000600052602260045260246000fd5b60006002820490506001821680610ceb57607f821691505b602082108103610cfe57610cfd610ca4565b5b50919050565b7f4e487b7100000000000000000000000000000000000000000000000000000000600052603260045260246000fd5b7f4e487b7100000000000000000000000000000000000000000000000000000000600052604160045260246000fd5b60008190508160005260206000209050919050565b60006020601f8301049050919050565b600082821b905092915050565b600060088302610dc47fffffffffffffffffffffffffffffffffffffffffffffffffffffffffffffffff82610d87565b610dce8683610d87565b95508019841693508086168417925050509392505050565b6000819050919050565b6000610e0b610e06610e0184610986565b610de6565b610986565b9050919050565b6000819050919050565b610e2583610df0565b610e39610e3182610e12565b848454610d94565b825550505050565b600090565b610e4e610e41565b610e59818484610e1c565b505050565b5b81811015610e7d57610e72600082610e46565b600181019050610e5f565b5050565b601f821115610ec257610e9381610d62565b610e9c84610d77565b81016020851015610eab578190505b610ebf610eb785610d77565b830182610e5e565b50505b505050565b600082821c905092915050565b6000610ee560001984600802610ec7565b1980831691505092915050565b6000610efe8383610ed4565b9150826002028217905092915050565b610f178261099f565b67ffffffffffffffff811115610f3057610f2f610d33565b5b610f3a8254610cd3565b610f45828285610e81565b600060209050601f831160018114610f785760008415610f66578287015190505b610f708582610ef2565b865550610fd8565b601f198416610f8686610d62565b60005b82811015610fae57848901518255600182019150602085019450602081019050610f89565b86831015610fcb5784890151610fc7601f891682610ed4565b8355505b6001600288020188555050505b505050505050565b7f4e487b7100000000000000000000000000000000000000000000000000000000600052601160045260246000fd5b600061101a82610986565b915061102583610986565b925082820390508181111561103d5761103c610fe0565b5b92915050565b60008154905061105281610cd3565b9050919050565b81810361106757505061113f565b61107082611043565b67ffffffffffffffff81111561108957611088610d33565b5b6110938254610cd3565b61109e828285610e81565b6000601f8311600181146110cd57600084156110bb578287015490505b6110c58582610ef2565b865550611138565b601f1984166110db87610d62565b96506110e686610d62565b60005b8281101561110e578489015482556001820191506001850194506020810190506110e9565b8683101561112b5784890154611127601f891682610ed4565b8355505b6001600288020188555050505b5050505050505b565b7f4e487b7100000000000000000000000000000000000000000000000000000000600052603160045260246000fdfea264697066735822122074cff627ff4ca8d00767d9232eda2dd2dec01676c43f85f47616464ab14383a964736f6c63430008110033",
  "devdoc": {
    "kind": "dev",
    "methods": {},
    "version": 1
  },
  "userdoc": {
    "kind": "user",
    "methods": {},
    "version": 1
  },
  "storageLayout": {
    "storage": [
      {
        "astId": 62,
        "contract": "contracts/Todo.sol:Todo",
        "label": "addressToTasks",
        "offset": 0,
        "slot": "0",
        "type": "t_mapping(t_address,t_array(t_struct(Task)56_storage)dyn_storage)"
      }
    ],
    "types": {
      "t_address": {
        "encoding": "inplace",
        "label": "address",
        "numberOfBytes": "20"
      },
      "t_array(t_struct(Task)56_storage)dyn_storage": {
        "base": "t_struct(Task)56_storage",
        "encoding": "dynamic_array",
        "label": "struct Todo.Task[]",
        "numberOfBytes": "32"
      },
      "t_bool": {
        "encoding": "inplace",
        "label": "bool",
        "numberOfBytes": "1"
      },
      "t_mapping(t_address,t_array(t_struct(Task)56_storage)dyn_storage)": {
        "encoding": "mapping",
        "key": "t_address",
        "label": "mapping(address => struct Todo.Task[])",
        "numberOfBytes": "32",
        "value": "t_array(t_struct(Task)56_storage)dyn_storage"
      },
      "t_string_storage": {
        "encoding": "bytes",
        "label": "string",
        "numberOfBytes": "32"
      },
      "t_struct(Task)56_storage": {
        "encoding": "inplace",
        "label": "struct Todo.Task",
        "members": [
          {
            "astId": 49,
            "contract": "contracts/Todo.sol:Todo",
            "label": "id",
            "offset": 0,
            "slot": "0",
            "type": "t_uint256"
          },
          {
            "astId": 51,
            "contract": "contracts/Todo.sol:Todo",
            "label": "description",
            "offset": 0,
            "slot": "1",
            "type": "t_string_storage"
          },
          {
            "astId": 53,
            "contract": "contracts/Todo.sol:Todo",
            "label": "createdAt",
            "offset": 0,
            "slot": "2",
            "type": "t_uint256"
          },
          {
            "astId": 55,
            "contract": "contracts/Todo.sol:Todo",
            "label": "status",
            "offset": 0,
            "slot": "3",
            "type": "t_bool"
          }
        ],
        "numberOfBytes": "128"
      },
      "t_uint256": {
        "encoding": "inplace",
        "label": "uint256",
        "numberOfBytes": "32"
      }
    }
  }
}