{
  "address": "0x5FbDB2315678afecb367f032d93F642f64180aa3",
  "abi": [
    {
      "inputs": [],
      "stateMutability": "nonpayable",
      "type": "constructor"
    },
    {
      "inputs": [],
      "name": "Todo_InvalidID",
      "type": "error"
    },
    {
      "anonymous": false,
      "inputs": [
        {
          "indexed": true,
          "internalType": "address",
          "name": "",
          "type": "address"
        },
        {
          "indexed": true,
          "internalType": "uint256",
          "name": "",
          "type": "uint256"
        }
      ],
      "name": "TaskAdded",
      "type": "event"
    },
    {
      "anonymous": false,
      "inputs": [
        {
          "indexed": true,
          "internalType": "address",
          "name": "",
          "type": "address"
        },
        {
          "indexed": true,
          "internalType": "uint256",
          "name": "",
          "type": "uint256"
        }
      ],
      "name": "TaskRemoved",
      "type": "event"
    },
    {
      "anonymous": false,
      "inputs": [
        {
          "indexed": true,
          "internalType": "address",
          "name": "",
          "type": "address"
        },
        {
          "indexed": true,
          "internalType": "uint256",
          "name": "",
          "type": "uint256"
        },
        {
          "indexed": false,
          "internalType": "bool",
          "name": "status",
          "type": "bool"
        }
      ],
      "name": "TaskStatusChanged",
      "type": "event"
    },
    {
      "inputs": [
        {
          "internalType": "string",
          "name": "_description",
          "type": "string"
        }
      ],
      "name": "addTask",
      "outputs": [
        {
          "internalType": "bool",
          "name": "",
          "type": "bool"
        }
      ],
      "stateMutability": "nonpayable",
      "type": "function"
    },
    {
      "inputs": [],
      "name": "getTasks",
      "outputs": [
        {
          "components": [
            {
              "internalType": "uint256",
              "name": "id",
              "type": "uint256"
            },
            {
              "internalType": "string",
              "name": "description",
              "type": "string"
            },
            {
              "internalType": "uint256",
              "name": "createdAt",
              "type": "uint256"
            },
            {
              "internalType": "bool",
              "name": "status",
              "type": "bool"
            }
          ],
          "internalType": "struct Todo.Task[]",
          "name": "",
          "type": "tuple[]"
        }
      ],
      "stateMutability": "view",
      "type": "function"
    },
    {
      "inputs": [
        {
          "internalType": "uint256",
          "name": "_id",
          "type": "uint256"
        }
      ],
      "name": "invertStatus",
      "outputs": [
        {
          "internalType": "bool",
          "name": "",
          "type": "bool"
        }
      ],
      "stateMutability": "nonpayable",
      "type": "function"
    },
    {
      "inputs": [
        {
          "internalType": "uint256",
          "name": "_id",
          "type": "uint256"
        }
      ],
      "name": "removeTask",
      "outputs": [
        {
          "internalType": "bool",
          "name": "",
          "type": "bool"
        }
      ],
      "stateMutability": "nonpayable",
      "type": "function"
    }
  ],
  "transactionHash": "0xde67f5e8231f942d0802528538f5670e45094b2c904fbc6fc68d926fbafc4f2c",
  "args": [],
  "numDeployments": 1,
  "solcInputHash": "a63962742b83befe94794022f63e9a51",
  "bytecode": "0x608060405234801561001057600080fd5b50610ec9806100206000396000f3fe608060405234801561001057600080fd5b506004361061004c5760003560e01c806304a87e3814610051578063672385621461006f5780638eb45ac31461009f578063c3084117146100cf575b600080fd5b6100596100ff565b60405161006691906109f6565b60405180910390f35b61008960048036038101906100849190610a87565b610262565b6040516100969190610ae3565b60405180910390f35b6100b960048036038101906100b49190610b2a565b61028f565b6040516100c69190610ae3565b60405180910390f35b6100e960048036038101906100e49190610b2a565b610472565b6040516100f69190610ae3565b60405180910390f35b606060008061010c610513565b73ffffffffffffffffffffffffffffffffffffffff1673ffffffffffffffffffffffffffffffffffffffff168152602001908152602001600020805480602002602001604051908101604052809291908181526020016000905b828210156102595783829060005260206000209060040201604051806080016040529081600082015481526020016001820180546101a390610b86565b80601f01602080910402602001604051908101604052809291908181526020018280546101cf90610b86565b801561021c5780601f106101f15761010080835404028352916020019161021c565b820191906000526020600020905b8154815290600101906020018083116101ff57829003601f168201915b50505050508152602001600282015481526020016003820160009054906101000a900460ff16151515158152505081526020019060010190610166565b50505050905090565b60006102768383610271610513565b61051b565b156102845760019050610289565b600090505b92915050565b6000610299610513565b826000808373ffffffffffffffffffffffffffffffffffffffff1673ffffffffffffffffffffffffffffffffffffffff168152602001908152602001600020805490508110610314576040517fc275cb6d00000000000000000000000000000000000000000000000000000000815260040160405180910390fd5b6000806000610321610513565b73ffffffffffffffffffffffffffffffffffffffff1673ffffffffffffffffffffffffffffffffffffffff168152602001908152602001600020858154811061036d5761036c610bb7565b5b906000526020600020906004020160030160009054906101000a900460ff169050801560008061039b610513565b73ffffffffffffffffffffffffffffffffffffffff1673ffffffffffffffffffffffffffffffffffffffff16815260200190815260200160002086815481106103e7576103e6610bb7565b5b906000526020600020906004020160030160006101000a81548160ff02191690831515021790555084610418610513565b73ffffffffffffffffffffffffffffffffffffffff167fc45e12337938d2dbc2885911535278944c24635ad324eb37f1ebbde62190914d831560405161045e9190610ae3565b60405180910390a360019350505050919050565b600061047c610513565b826000808373ffffffffffffffffffffffffffffffffffffffff1673ffffffffffffffffffffffffffffffffffffffff1681526020019081526020016000208054905081106104f7576040517fc275cb6d00000000000000000000000000000000000000000000000000000000815260040160405180910390fd5b610508610502610513565b856106d3565b600192505050919050565b600033905090565b6000806000808473ffffffffffffffffffffffffffffffffffffffff1673ffffffffffffffffffffffffffffffffffffffff1681526020019081526020016000208054905090506000604051806080016040528083815260200187878080601f016020809104026020016040519081016040528093929190818152602001838380828437600081840152601f19601f8201169050808301925050505050505081526020014281526020016000151581525090506000808573ffffffffffffffffffffffffffffffffffffffff1673ffffffffffffffffffffffffffffffffffffffff1681526020019081526020016000208190806001815401808255809150506001900390600052602060002090600402016000909190919091506000820151816000015560208201518160010190816106559190610dc1565b506040820151816002015560608201518160030160006101000a81548160ff0219169083151502179055505050818473ffffffffffffffffffffffffffffffffffffffff167ff2ba834cb120f28cac9129d80d6990b8d99d9a0a71487cec7d88bd8a2ba45cb960405160405180910390a36001925050509392505050565b6000808373ffffffffffffffffffffffffffffffffffffffff1673ffffffffffffffffffffffffffffffffffffffff168152602001908152602001600020818154811061072357610722610bb7565b5b906000526020600020906004020160008082016000905560018201600061074a91906107b0565b60028201600090556003820160006101000a81549060ff02191690555050808273ffffffffffffffffffffffffffffffffffffffff167fe235d79665ea3192912390028d35b5256dfd077d767ca2c5a42e370435adfa0260405160405180910390a35050565b5080546107bc90610b86565b6000825580601f106107ce57506107ed565b601f0160209004906000526020600020908101906107ec91906107f0565b5b50565b5b808211156108095760008160009055506001016107f1565b5090565b600081519050919050565b600082825260208201905092915050565b6000819050602082019050919050565b6000819050919050565b61084c81610839565b82525050565b600081519050919050565b600082825260208201905092915050565b60005b8381101561088c578082015181840152602081019050610871565b60008484015250505050565b6000601f19601f8301169050919050565b60006108b482610852565b6108be818561085d565b93506108ce81856020860161086e565b6108d781610898565b840191505092915050565b60008115159050919050565b6108f7816108e2565b82525050565b60006080830160008301516109156000860182610843565b506020830151848203602086015261092d82826108a9565b91505060408301516109426040860182610843565b50606083015161095560608601826108ee565b508091505092915050565b600061096c83836108fd565b905092915050565b6000602082019050919050565b600061098c8261080d565b6109968185610818565b9350836020820285016109a885610829565b8060005b858110156109e457848403895281516109c58582610960565b94506109d083610974565b925060208a019950506001810190506109ac565b50829750879550505050505092915050565b60006020820190508181036000830152610a108184610981565b905092915050565b600080fd5b600080fd5b600080fd5b600080fd5b600080fd5b60008083601f840112610a4757610a46610a22565b5b8235905067ffffffffffffffff811115610a6457610a63610a27565b5b602083019150836001820283011115610a8057610a7f610a2c565b5b9250929050565b60008060208385031215610a9e57610a9d610a18565b5b600083013567ffffffffffffffff811115610abc57610abb610a1d565b5b610ac885828601610a31565b92509250509250929050565b610add816108e2565b82525050565b6000602082019050610af86000830184610ad4565b92915050565b610b0781610839565b8114610b1257600080fd5b50565b600081359050610b2481610afe565b92915050565b600060208284031215610b4057610b3f610a18565b5b6000610b4e84828501610b15565b91505092915050565b7f4e487b7100000000000000000000000000000000000000000000000000000000600052602260045260246000fd5b60006002820490506001821680610b9e57607f821691505b602082108103610bb157610bb0610b57565b5b50919050565b7f4e487b7100000000000000000000000000000000000000000000000000000000600052603260045260246000fd5b7f4e487b7100000000000000000000000000000000000000000000000000000000600052604160045260246000fd5b60008190508160005260206000209050919050565b60006020601f8301049050919050565b600082821b905092915050565b600060088302610c777fffffffffffffffffffffffffffffffffffffffffffffffffffffffffffffffff82610c3a565b610c818683610c3a565b95508019841693508086168417925050509392505050565b6000819050919050565b6000610cbe610cb9610cb484610839565b610c99565b610839565b9050919050565b6000819050919050565b610cd883610ca3565b610cec610ce482610cc5565b848454610c47565b825550505050565b600090565b610d01610cf4565b610d0c818484610ccf565b505050565b5b81811015610d3057610d25600082610cf9565b600181019050610d12565b5050565b601f821115610d7557610d4681610c15565b610d4f84610c2a565b81016020851015610d5e578190505b610d72610d6a85610c2a565b830182610d11565b50505b505050565b600082821c905092915050565b6000610d9860001984600802610d7a565b1980831691505092915050565b6000610db18383610d87565b9150826002028217905092915050565b610dca82610852565b67ffffffffffffffff811115610de357610de2610be6565b5b610ded8254610b86565b610df8828285610d34565b600060209050601f831160018114610e2b5760008415610e19578287015190505b610e238582610da5565b865550610e8b565b601f198416610e3986610c15565b60005b82811015610e6157848901518255600182019150602085019450602081019050610e3c565b86831015610e7e5784890151610e7a601f891682610d87565b8355505b6001600288020188555050505b50505050505056fea2646970667358221220022728467f82b2f2eb9fe8bf1ca4da63bd4495529ec2f6a245342c26b30f8e8264736f6c63430008110033",
  "devdoc": {
    "kind": "dev",
    "methods": {},
    "version": 1
  },
  "userdoc": {
    "kind": "user",
    "methods": {},
    "version": 1
  },
  "storageLayout": {
    "storage": [
      {
        "astId": 64,
        "contract": "contracts/Todo.sol:Todo",
        "label": "addressToTasks",
        "offset": 0,
        "slot": "0",
        "type": "t_mapping(t_address,t_array(t_struct(Task)58_storage)dyn_storage)"
      }
    ],
    "types": {
      "t_address": {
        "encoding": "inplace",
        "label": "address",
        "numberOfBytes": "20"
      },
      "t_array(t_struct(Task)58_storage)dyn_storage": {
        "base": "t_struct(Task)58_storage",
        "encoding": "dynamic_array",
        "label": "struct Todo.Task[]",
        "numberOfBytes": "32"
      },
      "t_bool": {
        "encoding": "inplace",
        "label": "bool",
        "numberOfBytes": "1"
      },
      "t_mapping(t_address,t_array(t_struct(Task)58_storage)dyn_storage)": {
        "encoding": "mapping",
        "key": "t_address",
        "label": "mapping(address => struct Todo.Task[])",
        "numberOfBytes": "32",
        "value": "t_array(t_struct(Task)58_storage)dyn_storage"
      },
      "t_string_storage": {
        "encoding": "bytes",
        "label": "string",
        "numberOfBytes": "32"
      },
      "t_struct(Task)58_storage": {
        "encoding": "inplace",
        "label": "struct Todo.Task",
        "members": [
          {
            "astId": 51,
            "contract": "contracts/Todo.sol:Todo",
            "label": "id",
            "offset": 0,
            "slot": "0",
            "type": "t_uint256"
          },
          {
            "astId": 53,
            "contract": "contracts/Todo.sol:Todo",
            "label": "description",
            "offset": 0,
            "slot": "1",
            "type": "t_string_storage"
          },
          {
            "astId": 55,
            "contract": "contracts/Todo.sol:Todo",
            "label": "createdAt",
            "offset": 0,
            "slot": "2",
            "type": "t_uint256"
          },
          {
            "astId": 57,
            "contract": "contracts/Todo.sol:Todo",
            "label": "status",
            "offset": 0,
            "slot": "3",
            "type": "t_bool"
          }
        ],
        "numberOfBytes": "128"
      },
      "t_uint256": {
        "encoding": "inplace",
        "label": "uint256",
        "numberOfBytes": "32"
      }
    }
  }
}