{
  "address": "0x5FbDB2315678afecb367f032d93F642f64180aa3",
  "abi": [
    {
      "inputs": [],
      "stateMutability": "nonpayable",
      "type": "constructor"
    },
    {
      "inputs": [],
      "name": "Todo_InvalidID",
      "type": "error"
    },
    {
      "anonymous": false,
      "inputs": [
        {
          "indexed": true,
          "internalType": "address",
          "name": "",
          "type": "address"
        },
        {
          "indexed": true,
          "internalType": "uint256",
          "name": "",
          "type": "uint256"
        }
      ],
      "name": "TaskAdded",
      "type": "event"
    },
    {
      "anonymous": false,
      "inputs": [
        {
          "indexed": true,
          "internalType": "address",
          "name": "",
          "type": "address"
        },
        {
          "indexed": true,
          "internalType": "uint256",
          "name": "",
          "type": "uint256"
        }
      ],
      "name": "TaskRemoved",
      "type": "event"
    },
    {
      "anonymous": false,
      "inputs": [
        {
          "indexed": true,
          "internalType": "address",
          "name": "",
          "type": "address"
        },
        {
          "indexed": true,
          "internalType": "uint256",
          "name": "",
          "type": "uint256"
        },
        {
          "indexed": false,
          "internalType": "bool",
          "name": "status",
          "type": "bool"
        }
      ],
      "name": "TaskStatusChanged",
      "type": "event"
    },
    {
      "stateMutability": "nonpayable",
      "type": "fallback"
    },
    {
      "inputs": [
        {
          "internalType": "string",
          "name": "_description",
          "type": "string"
        }
      ],
      "name": "addTask",
      "outputs": [
        {
          "internalType": "bool",
          "name": "",
          "type": "bool"
        }
      ],
      "stateMutability": "nonpayable",
      "type": "function"
    },
    {
      "inputs": [],
      "name": "getTasks",
      "outputs": [
        {
          "components": [
            {
              "internalType": "uint256",
              "name": "id",
              "type": "uint256"
            },
            {
              "internalType": "string",
              "name": "description",
              "type": "string"
            },
            {
              "internalType": "uint256",
              "name": "createdAt",
              "type": "uint256"
            },
            {
              "internalType": "bool",
              "name": "status",
              "type": "bool"
            }
          ],
          "internalType": "struct Todo.Task[]",
          "name": "",
          "type": "tuple[]"
        }
      ],
      "stateMutability": "view",
      "type": "function"
    },
    {
      "inputs": [
        {
          "internalType": "uint256",
          "name": "_id",
          "type": "uint256"
        }
      ],
      "name": "invertStatus",
      "outputs": [
        {
          "internalType": "bool",
          "name": "",
          "type": "bool"
        }
      ],
      "stateMutability": "nonpayable",
      "type": "function"
    },
    {
      "inputs": [
        {
          "internalType": "uint256",
          "name": "_id",
          "type": "uint256"
        }
      ],
      "name": "removeTask",
      "outputs": [
        {
          "internalType": "bool",
          "name": "",
          "type": "bool"
        }
      ],
      "stateMutability": "nonpayable",
      "type": "function"
    },
    {
      "stateMutability": "payable",
      "type": "receive"
    }
  ],
  "transactionHash": "0xdbf3d8ca848db7cc97059756f1eeba422322de785eca63ee1c36292c002e241a",
  "args": [],
  "numDeployments": 1,
  "solcInputHash": "df283fdcaf929793a7c0830c7ff077c8",
  "bytecode": "0x608060405234801561001057600080fd5b50610f04806100206000396000f3fe6080604052600436106100435760003560e01c806304a87e381461005857806367238562146100835780638eb45ac3146100c0578063c3084117146100fd5761004a565b3661004a57005b34801561005657600080fd5b005b34801561006457600080fd5b5061006d61013a565b60405161007a9190610a31565b60405180910390f35b34801561008f57600080fd5b506100aa60048036038101906100a59190610ac2565b61029d565b6040516100b79190610b1e565b60405180910390f35b3480156100cc57600080fd5b506100e760048036038101906100e29190610b65565b6102ca565b6040516100f49190610b1e565b60405180910390f35b34801561010957600080fd5b50610124600480360381019061011f9190610b65565b6104ad565b6040516101319190610b1e565b60405180910390f35b606060008061014761054e565b73ffffffffffffffffffffffffffffffffffffffff1673ffffffffffffffffffffffffffffffffffffffff168152602001908152602001600020805480602002602001604051908101604052809291908181526020016000905b828210156102945783829060005260206000209060040201604051806080016040529081600082015481526020016001820180546101de90610bc1565b80601f016020809104026020016040519081016040528092919081815260200182805461020a90610bc1565b80156102575780601f1061022c57610100808354040283529160200191610257565b820191906000526020600020905b81548152906001019060200180831161023a57829003601f168201915b50505050508152602001600282015481526020016003820160009054906101000a900460ff161515151581525050815260200190600101906101a1565b50505050905090565b60006102b183836102ac61054e565b610556565b156102bf57600190506102c4565b600090505b92915050565b60006102d461054e565b826000808373ffffffffffffffffffffffffffffffffffffffff1673ffffffffffffffffffffffffffffffffffffffff16815260200190815260200160002080549050811061034f576040517fc275cb6d00000000000000000000000000000000000000000000000000000000815260040160405180910390fd5b600080600061035c61054e565b73ffffffffffffffffffffffffffffffffffffffff1673ffffffffffffffffffffffffffffffffffffffff16815260200190815260200160002085815481106103a8576103a7610bf2565b5b906000526020600020906004020160030160009054906101000a900460ff16905080156000806103d661054e565b73ffffffffffffffffffffffffffffffffffffffff1673ffffffffffffffffffffffffffffffffffffffff168152602001908152602001600020868154811061042257610421610bf2565b5b906000526020600020906004020160030160006101000a81548160ff0219169083151502179055508461045361054e565b73ffffffffffffffffffffffffffffffffffffffff167fc45e12337938d2dbc2885911535278944c24635ad324eb37f1ebbde62190914d83156040516104999190610b1e565b60405180910390a360019350505050919050565b60006104b761054e565b826000808373ffffffffffffffffffffffffffffffffffffffff1673ffffffffffffffffffffffffffffffffffffffff168152602001908152602001600020805490508110610532576040517fc275cb6d00000000000000000000000000000000000000000000000000000000815260040160405180910390fd5b61054361053d61054e565b8561070e565b600192505050919050565b600033905090565b6000806000808473ffffffffffffffffffffffffffffffffffffffff1673ffffffffffffffffffffffffffffffffffffffff1681526020019081526020016000208054905090506000604051806080016040528083815260200187878080601f016020809104026020016040519081016040528093929190818152602001838380828437600081840152601f19601f8201169050808301925050505050505081526020014281526020016000151581525090506000808573ffffffffffffffffffffffffffffffffffffffff1673ffffffffffffffffffffffffffffffffffffffff1681526020019081526020016000208190806001815401808255809150506001900390600052602060002090600402016000909190919091506000820151816000015560208201518160010190816106909190610dfc565b506040820151816002015560608201518160030160006101000a81548160ff0219169083151502179055505050818473ffffffffffffffffffffffffffffffffffffffff167ff2ba834cb120f28cac9129d80d6990b8d99d9a0a71487cec7d88bd8a2ba45cb960405160405180910390a36001925050509392505050565b6000808373ffffffffffffffffffffffffffffffffffffffff1673ffffffffffffffffffffffffffffffffffffffff168152602001908152602001600020818154811061075e5761075d610bf2565b5b906000526020600020906004020160008082016000905560018201600061078591906107eb565b60028201600090556003820160006101000a81549060ff02191690555050808273ffffffffffffffffffffffffffffffffffffffff167fe235d79665ea3192912390028d35b5256dfd077d767ca2c5a42e370435adfa0260405160405180910390a35050565b5080546107f790610bc1565b6000825580601f106108095750610828565b601f016020900490600052602060002090810190610827919061082b565b5b50565b5b8082111561084457600081600090555060010161082c565b5090565b600081519050919050565b600082825260208201905092915050565b6000819050602082019050919050565b6000819050919050565b61088781610874565b82525050565b600081519050919050565b600082825260208201905092915050565b60005b838110156108c75780820151818401526020810190506108ac565b60008484015250505050565b6000601f19601f8301169050919050565b60006108ef8261088d565b6108f98185610898565b93506109098185602086016108a9565b610912816108d3565b840191505092915050565b60008115159050919050565b6109328161091d565b82525050565b6000608083016000830151610950600086018261087e565b506020830151848203602086015261096882826108e4565b915050604083015161097d604086018261087e565b5060608301516109906060860182610929565b508091505092915050565b60006109a78383610938565b905092915050565b6000602082019050919050565b60006109c782610848565b6109d18185610853565b9350836020820285016109e385610864565b8060005b85811015610a1f5784840389528151610a00858261099b565b9450610a0b836109af565b925060208a019950506001810190506109e7565b50829750879550505050505092915050565b60006020820190508181036000830152610a4b81846109bc565b905092915050565b600080fd5b600080fd5b600080fd5b600080fd5b600080fd5b60008083601f840112610a8257610a81610a5d565b5b8235905067ffffffffffffffff811115610a9f57610a9e610a62565b5b602083019150836001820283011115610abb57610aba610a67565b5b9250929050565b60008060208385031215610ad957610ad8610a53565b5b600083013567ffffffffffffffff811115610af757610af6610a58565b5b610b0385828601610a6c565b92509250509250929050565b610b188161091d565b82525050565b6000602082019050610b336000830184610b0f565b92915050565b610b4281610874565b8114610b4d57600080fd5b50565b600081359050610b5f81610b39565b92915050565b600060208284031215610b7b57610b7a610a53565b5b6000610b8984828501610b50565b91505092915050565b7f4e487b7100000000000000000000000000000000000000000000000000000000600052602260045260246000fd5b60006002820490506001821680610bd957607f821691505b602082108103610bec57610beb610b92565b5b50919050565b7f4e487b7100000000000000000000000000000000000000000000000000000000600052603260045260246000fd5b7f4e487b7100000000000000000000000000000000000000000000000000000000600052604160045260246000fd5b60008190508160005260206000209050919050565b60006020601f8301049050919050565b600082821b905092915050565b600060088302610cb27fffffffffffffffffffffffffffffffffffffffffffffffffffffffffffffffff82610c75565b610cbc8683610c75565b95508019841693508086168417925050509392505050565b6000819050919050565b6000610cf9610cf4610cef84610874565b610cd4565b610874565b9050919050565b6000819050919050565b610d1383610cde565b610d27610d1f82610d00565b848454610c82565b825550505050565b600090565b610d3c610d2f565b610d47818484610d0a565b505050565b5b81811015610d6b57610d60600082610d34565b600181019050610d4d565b5050565b601f821115610db057610d8181610c50565b610d8a84610c65565b81016020851015610d99578190505b610dad610da585610c65565b830182610d4c565b50505b505050565b600082821c905092915050565b6000610dd360001984600802610db5565b1980831691505092915050565b6000610dec8383610dc2565b9150826002028217905092915050565b610e058261088d565b67ffffffffffffffff811115610e1e57610e1d610c21565b5b610e288254610bc1565b610e33828285610d6f565b600060209050601f831160018114610e665760008415610e54578287015190505b610e5e8582610de0565b865550610ec6565b601f198416610e7486610c50565b60005b82811015610e9c57848901518255600182019150602085019450602081019050610e77565b86831015610eb95784890151610eb5601f891682610dc2565b8355505b6001600288020188555050505b50505050505056fea2646970667358221220fbcd9fc97b7ac413d50bde40d4b6de7804ba448749e00b4a4a265e90aa9885e264736f6c63430008110033",
  "devdoc": {
    "kind": "dev",
    "methods": {},
    "version": 1
  },
  "userdoc": {
    "kind": "user",
    "methods": {},
    "version": 1
  },
  "storageLayout": {
    "storage": [
      {
        "astId": 64,
        "contract": "contracts/Todo.sol:Todo",
        "label": "addressToTasks",
        "offset": 0,
        "slot": "0",
        "type": "t_mapping(t_address,t_array(t_struct(Task)58_storage)dyn_storage)"
      }
    ],
    "types": {
      "t_address": {
        "encoding": "inplace",
        "label": "address",
        "numberOfBytes": "20"
      },
      "t_array(t_struct(Task)58_storage)dyn_storage": {
        "base": "t_struct(Task)58_storage",
        "encoding": "dynamic_array",
        "label": "struct Todo.Task[]",
        "numberOfBytes": "32"
      },
      "t_bool": {
        "encoding": "inplace",
        "label": "bool",
        "numberOfBytes": "1"
      },
      "t_mapping(t_address,t_array(t_struct(Task)58_storage)dyn_storage)": {
        "encoding": "mapping",
        "key": "t_address",
        "label": "mapping(address => struct Todo.Task[])",
        "numberOfBytes": "32",
        "value": "t_array(t_struct(Task)58_storage)dyn_storage"
      },
      "t_string_storage": {
        "encoding": "bytes",
        "label": "string",
        "numberOfBytes": "32"
      },
      "t_struct(Task)58_storage": {
        "encoding": "inplace",
        "label": "struct Todo.Task",
        "members": [
          {
            "astId": 51,
            "contract": "contracts/Todo.sol:Todo",
            "label": "id",
            "offset": 0,
            "slot": "0",
            "type": "t_uint256"
          },
          {
            "astId": 53,
            "contract": "contracts/Todo.sol:Todo",
            "label": "description",
            "offset": 0,
            "slot": "1",
            "type": "t_string_storage"
          },
          {
            "astId": 55,
            "contract": "contracts/Todo.sol:Todo",
            "label": "createdAt",
            "offset": 0,
            "slot": "2",
            "type": "t_uint256"
          },
          {
            "astId": 57,
            "contract": "contracts/Todo.sol:Todo",
            "label": "status",
            "offset": 0,
            "slot": "3",
            "type": "t_bool"
          }
        ],
        "numberOfBytes": "128"
      },
      "t_uint256": {
        "encoding": "inplace",
        "label": "uint256",
        "numberOfBytes": "32"
      }
    }
  }
}